:020000020000FC
:100000000AC0FECFFDCFFCCFFBCFFACFF9CFF8CFA0
:10001000F7CFF6CF7BC0FF24A0E6B0E000E0FD9272
:100020000A95E9F70DE008BB02E107BB06E007BD52
:1000300001E600BF00E60CBD0EE309BD02E00ABD0B
:1000400002E003BF00E109BFF89496B390FFFCCF34
:1000500092FDFACFEEECF1E088249924772478948D
:100060002591359134D0F894821693067894D0F384
:1000700045914F3F49F306B302FDE6CF042F03D06D
:100080004078B1F3EDCFFF93EF93E02FEE0FFF2712
:10009000EC5FFA4F05911591C0916000C75FC633C0
:1000A00008F0CC27C0936000DD27CF59DF4F20E058
:1000B0003CE0F894198308833C832B8378940FEFFA
:1000C0000D830E83FF82F886EF91FF910895FF93D1
:1000D000EF93C1E6D0E00E811FEF011789F01E8378
:1000E0000F8103950C3008F000E00F8348F0E8859D
:1000F000E39531F0E887FF27EC58FA4F04910D8320
:100100002996C73941F7EF91FF910895EFB66F0136
:100110005E01C1E6D0E0222433249A81EB81FC8188
:10012000849148805980940DE51DFF1DF03118F031
:10013000E058F040FE829A83FC83EB839D81182E69
:1001400087FD8195002490FD080E069491FD080E10
:10015000069492FD080E069493FD080E002494FD6B
:10016000080E069495FD080E069496FD080E06945A
:1001700097FD080E110C1F2C10F401941108200C8F
:10018000311C2996C73949F635942794359427941C
:100190008DEF90E0281639060CF01C0181E09FEFEE
:1001A000281639060CF41C01359427943794822DB7
:1001B0008058982F909537FC83958EBD9BBD0894F1
:1001C0007F1C8F1C9F1CF601E501EFBE18950000F7
:1001D000309526002F9C4B0030A17100AF96003067
:1001E00091BC002B98E100309F0701A9A302A4B69F
:1001F00002A8C9023095EE022F9C140330A13903E6
:10020000AF5F03309184032B98AA03309FCF03A9DB
:100210007E05A49A05A8B7053095DC052F9CEF054F
:10022000B00206A11406A42706AF3A06B04D069107
:100230005F06A472062B988506B098069DAA06A4B0
:10024000BD06A9D006A4DD06A6E306288C0807296A
:10025000932E072B985307A8790726939E079AC4D5
:10026000079FE907A4FC07A30F08249534089C5AAC
:1002700008A16C089F7F08A49208A6A5082891CA27
:100280000898F0089D1509A82809A93B092B8C603E
:100290000993860998AB09A9BE09A8D1092693F646
:1002A000099A1C0A9F540AA45D0AA8670A30958C13
:1002B0000A2F9C9F0AB0B20AA1C40AA4D70AAFEAC7
:1002C0000AB0FD0A910F0BA4220B2B98350BB048F6
:1002D0000B9D5A0BA46D0BA9800BA48D0BA6930B41
:1002E000288CB80B2993DE0B2B98030CB4290C3205
:1002F000934E0C2B9A740C349F860CB2990CB0ACB4
:100300000CAFBF0C3095E40C9C0A0DA12F0DA4423C
:100310000DA6550D28917A0D1F98A00D249DC50D91
:10032000A8D80DA9EB0D2B8C100E1F93360E289814
:100330005B0EA96E0EA8810E2693A60E9ACC0E30E7
:100340009FDE0EB2F10EB0040FAF170F3095290FDC
:10035000A43C0F2B9C4F0FA4620F30A1740FB287E7
:100360000FB09A0FAFAD0F3091BF0FA4D20F2B98E3
:10037000E50FA4F80F309D0A10B21D103098301010
:10038000AF4310308C5510B2681034937B10B58E8B
:10039000103798A010B4B3103293C610B0D9102FF4
:1003A00093FE10269A2411309F3611B24911309ACB
:1003B0005C11AF6F1130958111A494112B9CA71182
:1003C000A4BA1130A1CC11B2DF11309CF211AF05EB
:1003D0001230911712A42A122B983D12A4501230F9
:1003E0009D6212B2751230988812AF9B12308CAD9C
:1003F00012B2C0123493D312B5E6123798F812B481
:100400000B1332931E13B031132F935613269A7C7D
:1004100013309F8E13B09813B2A113309AB413AF58
:10042000C7133089D913A4EC132B90FF13A4121413
:1004300030952414B02E14B2371430904A14AF5DA6
:100440001430916F14A482142B989514A4A814301E
:100450009DBA14B0C414B2CD143098E014AFF314A4
:10046000308C0515B2181534932B15B53E153798F9
:100470005015B4631532937615B089152F87AE15D4
:10048000268ED4153093E615B0F015B2F915308EDE
:100490000C16AF1F1630893116A444162B90571630
:1004A000A46A1630957C16B08616B28F163090A2CC
:1004B00016AFB5163091C716A4DA162B98ED16A410
:1004C0000017309D1217B01C17B225173098381737
:1004D000AF4B17308C5D17B2701734938317B596F6
:1004E000173798A817B4BB173293CE17B0E1172F60
:1004F0008706182B8E2C1826935118239777181FD0
:100500009A0019FFE100EF00FD000C011C012D0114
:100510003F01520166017B019101A901C301DD0187
:10052000FA011802380259027D02A302CB02F60238
:10053000230353038503BB03F30330046F04B304A5
:10054000FA0446059605EB054606A5060A07750753
:10055000E7075F08DF086609F5098C0A2D0BD70B42
:100560008B0C4A0D140EEA0ECE0FBE10BE11CC122B
:10057000EA131815FFFCFAF7F5F3F0EEEBE9E7E400
:10058000E2E0DEDBD9D7D5D3D1CFCDCBC9C7C5C348
:10059000C1BFBDBBB9B7B6B4B2B0AEADABA9A8A62A
:1005A000A4A3A19F9E9C9B999896959392908F8DC2
:1005B0008C8B89888685848281807F7D7C7B7A781C
:1005C000777675747371706F6E6D6C6B6A6968673E
:1005D000666564636261605F5E5D5C5B5A59585733
:1005E0005756555453525251504F4E4E4D4C4B4B03
:1005F0004A494848474645454443434241414040B3
:100600003F3E3E3D3C3C3B3B3A3939383837373644
:10061000363535343333323231313030302F2F2EBE
:100620002E2D2D2C2C2B2B2B2A2A29282827272628
:1006300026252524232322222121201F1F1E1E1DA3
:100640001D1C1C1B1A1A1919181817161615151423
:1006500014131312111110100F0F0E0D0D0C0C0BA3
:100660000B0A0A0908080707060605040403030223
:040670000201010082
:100C0000000000000000FFFEFEFDFEFEFF000000F1
:100C10000000FFFEFDFDFCFCFDFEFF0000010000EA
:100C200000FFFEFDFDFE00000204050505030100B6
:100C3000FEFDFCFDFE000102030200FEFAF5F1EEEE
:100C4000EDEDF0F5FB01080F1417181714110D0A3C
:100C5000070606080A0D10121414141312121212A9
:100C60001315181A1B1C1B1916110B0500FBF7F4A2
:100C7000F3F3F5F7FBFF010406060400FBF4EBE2D7
:100C8000D9D0C8C2BEBBBAB9BABABAB9B8B5B3B18D
:100C9000B0B2B5BBC3CEDAE6F3FE070F15191C1EC2
:100CA0002124282C31373B3D3E3C38312A221B166B
:100CB000141519212A343F485056595A595754513E
:100CC0004F4D4B494845423D3730271F160E060011
:100CD000FBF6F2EFECEAE8E6E4E3E2E1E0DFDEDD9A
:100CE000DCDBD9D7D4D0CCC7C1BAB3ABA29A928C33
:100CF000878484878C939DA7B2BCC4CBD0D3D5D531
:100D0000D5D6D7D8DBDFE3E7EAEDEFF0F1F2F4F781
:100D1000FC020B16222E39434B515456575656554A
:100D200055555656575654524E4945403C3A383917
:100D30003B3E42464B4F5356595B5C5C5C5A5651A6
:100D4000493F34261809FBEDE1D6CEC7C3C0BEBD6E
:100D5000BCBCBCBDBEC0C3C8CCD2D7DCE0E3E4E4BD
:100D6000E2DED9D4CEC8C2BCB6B1ACA6A19C9895DF
:100D7000949495999EA4ACB4BDC6CFD8E0E8F0F8A1
:100D8000FF050B1014161615120E0A0501FFFDFDC6
:100D9000FE000105090C1014181C22282F374048AA
:100DA00051596065696C6C6C6B6967656462605D04
:100DB0005A57534F4B46423E3B3837353433323027
:100DC0002E2C2A2725221F1C18140F0A03FDF4EBD2
:100DD000E2D9D0C7BFB8B1ABA6A19D999693929026
:100DE00090909192939596979898999A9B9D9FA28F
:100DF000A6AAAEB2B5B8BBBDBFC1C3C6CACED4DA0F
:100E0000E1E9F0F6FC01060A0E12171B20262B3131
:100E1000363B3F4346494B4D4F515355585B5D6000
:100E2000636567696B6D6E6F7070706F6D6B686412
:100E3000605C58534F4B46413C37312B241E1812EF
:100E40000C070300FDFAF8F5F2EFECE8E4E0DBD67E
:100E5000D2CDC9C5C1BDB9B5B1AEABA8A5A3A19F3F
:100E60009E9C9B9A99989898999B9DA0A3A7AAADA0
:100E7000B0B2B4B5B6B7B8B9BABCBFC1C5C8CCD0AA
:100E8000D4D8DDE2E8EEF5FC030B131B2229303544
:100E90003A3F43474B4F5256595C5E5F6061626216
:100EA00063646567696C6E7072737372716E6B6781
:100EB000635F5B57534F4A46413B352F29231D182B
:100EC000130E0B070401FFFBF7F2EDE7E1DBD5CED4
:100ED000C8C2BCB7B2ADA8A49F9B9793908D8B89D5
:100EE000888788898A8C8E909396989B9DA0A2A5CE
:100EF000A8ABAFB2B6BABEC2C7CBCFD3D7DBE0E5A3
:100F0000EAF0F6FC01080E14191F24292E32373C92
:100F10004045494D5155585A5D5F616365676A6D3B
:100F2000707376797B7D7E7E7D7D7B79777573703E
:100F30006E6B67635E59534C453E362F271F181062
:100F40000902FCF5EEE7E1DAD4CDC7C2BCB7B1AC1B
:100F5000A8A39F9A96938F8C8987858483828181A9
:100F600081818283838586888A8C8E9195989CA1C5
:100F7000A5AAB0B5BBC1C6CCD2D8DEE4EAF0F6FC77
:100F800000050B11171C22272D32373C41454A4ED4
:100F90005255595C5F626466686A6B6D6D6E6E6F08
:100FA0006E6E6D6C6B6A686664625F5D5A57535013
:100FB0004C4844403B37322E29241F1A150F0A058E
:100FC00000FBF6F1EBE6E1DCD7D2CEC9C5C0BCB878
:100FD000B4B0ADA9A6A3A19E9C9A9896959493921D
:100FE0009291929293939596989A9C9EA1A4A7AB66
:100FF000AEB2B6BBBFC4C9CED3D9DEE4E9EFF5FBD0
:00000001FF
